{
  "contractName": "Governance",
  "abi": [
    {
      "inputs": [
        {
          "internalType": "contract ERC20Votes",
          "name": "_token",
          "type": "address"
        },
        {
          "internalType": "contract TimelockController",
          "name": "_timelock",
          "type": "address"
        },
        {
          "internalType": "uint256",
          "name": "_quorum",
          "type": "uint256"
        },
        {
          "internalType": "uint256",
          "name": "_votingDelay",
          "type": "uint256"
        },
        {
          "internalType": "uint256",
          "name": "_votingPeriod",
          "type": "uint256"
        }
      ],
      "stateMutability": "nonpayable",
      "type": "constructor"
    },
    {
      "anonymous": false,
      "inputs": [
        {
          "indexed": false,
          "internalType": "uint256",
          "name": "proposalId",
          "type": "uint256"
        }
      ],
      "name": "ProposalCanceled",
      "type": "event"
    },
    {
      "anonymous": false,
      "inputs": [
        {
          "indexed": false,
          "internalType": "uint256",
          "name": "proposalId",
          "type": "uint256"
        },
        {
          "indexed": false,
          "internalType": "address",
          "name": "proposer",
          "type": "address"
        },
        {
          "indexed": false,
          "internalType": "address[]",
          "name": "targets",
          "type": "address[]"
        },
        {
          "indexed": false,
          "internalType": "uint256[]",
          "name": "values",
          "type": "uint256[]"
        },
        {
          "indexed": false,
          "internalType": "string[]",
          "name": "signatures",
          "type": "string[]"
        },
        {
          "indexed": false,
          "internalType": "bytes[]",
          "name": "calldatas",
          "type": "bytes[]"
        },
        {
          "indexed": false,
          "internalType": "uint256",
          "name": "startBlock",
          "type": "uint256"
        },
        {
          "indexed": false,
          "internalType": "uint256",
          "name": "endBlock",
          "type": "uint256"
        },
        {
          "indexed": false,
          "internalType": "string",
          "name": "description",
          "type": "string"
        }
      ],
      "name": "ProposalCreated",
      "type": "event"
    },
    {
      "anonymous": false,
      "inputs": [
        {
          "indexed": false,
          "internalType": "uint256",
          "name": "proposalId",
          "type": "uint256"
        }
      ],
      "name": "ProposalExecuted",
      "type": "event"
    },
    {
      "anonymous": false,
      "inputs": [
        {
          "indexed": false,
          "internalType": "uint256",
          "name": "proposalId",
          "type": "uint256"
        },
        {
          "indexed": false,
          "internalType": "uint256",
          "name": "eta",
          "type": "uint256"
        }
      ],
      "name": "ProposalQueued",
      "type": "event"
    },
    {
      "anonymous": false,
      "inputs": [
        {
          "indexed": false,
          "internalType": "uint256",
          "name": "oldQuorumNumerator",
          "type": "uint256"
        },
        {
          "indexed": false,
          "internalType": "uint256",
          "name": "newQuorumNumerator",
          "type": "uint256"
        }
      ],
      "name": "QuorumNumeratorUpdated",
      "type": "event"
    },
    {
      "anonymous": false,
      "inputs": [
        {
          "indexed": false,
          "internalType": "address",
          "name": "oldTimelock",
          "type": "address"
        },
        {
          "indexed": false,
          "internalType": "address",
          "name": "newTimelock",
          "type": "address"
        }
      ],
      "name": "TimelockChange",
      "type": "event"
    },
    {
      "anonymous": false,
      "inputs": [
        {
          "indexed": true,
          "internalType": "address",
          "name": "voter",
          "type": "address"
        },
        {
          "indexed": false,
          "internalType": "uint256",
          "name": "proposalId",
          "type": "uint256"
        },
        {
          "indexed": false,
          "internalType": "uint8",
          "name": "support",
          "type": "uint8"
        },
        {
          "indexed": false,
          "internalType": "uint256",
          "name": "weight",
          "type": "uint256"
        },
        {
          "indexed": false,
          "internalType": "string",
          "name": "reason",
          "type": "string"
        }
      ],
      "name": "VoteCast",
      "type": "event"
    },
    {
      "inputs": [],
      "name": "BALLOT_TYPEHASH",
      "outputs": [
        {
          "internalType": "bytes32",
          "name": "",
          "type": "bytes32"
        }
      ],
      "stateMutability": "view",
      "type": "function",
      "constant": true
    },
    {
      "inputs": [],
      "name": "COUNTING_MODE",
      "outputs": [
        {
          "internalType": "string",
          "name": "",
          "type": "string"
        }
      ],
      "stateMutability": "pure",
      "type": "function",
      "constant": true
    },
    {
      "inputs": [
        {
          "internalType": "uint256",
          "name": "proposalId",
          "type": "uint256"
        },
        {
          "internalType": "uint8",
          "name": "support",
          "type": "uint8"
        }
      ],
      "name": "castVote",
      "outputs": [
        {
          "internalType": "uint256",
          "name": "",
          "type": "uint256"
        }
      ],
      "stateMutability": "nonpayable",
      "type": "function"
    },
    {
      "inputs": [
        {
          "internalType": "uint256",
          "name": "proposalId",
          "type": "uint256"
        },
        {
          "internalType": "uint8",
          "name": "support",
          "type": "uint8"
        },
        {
          "internalType": "uint8",
          "name": "v",
          "type": "uint8"
        },
        {
          "internalType": "bytes32",
          "name": "r",
          "type": "bytes32"
        },
        {
          "internalType": "bytes32",
          "name": "s",
          "type": "bytes32"
        }
      ],
      "name": "castVoteBySig",
      "outputs": [
        {
          "internalType": "uint256",
          "name": "",
          "type": "uint256"
        }
      ],
      "stateMutability": "nonpayable",
      "type": "function"
    },
    {
      "inputs": [
        {
          "internalType": "uint256",
          "name": "proposalId",
          "type": "uint256"
        },
        {
          "internalType": "uint8",
          "name": "support",
          "type": "uint8"
        },
        {
          "internalType": "string",
          "name": "reason",
          "type": "string"
        }
      ],
      "name": "castVoteWithReason",
      "outputs": [
        {
          "internalType": "uint256",
          "name": "",
          "type": "uint256"
        }
      ],
      "stateMutability": "nonpayable",
      "type": "function"
    },
    {
      "inputs": [
        {
          "internalType": "address[]",
          "name": "targets",
          "type": "address[]"
        },
        {
          "internalType": "uint256[]",
          "name": "values",
          "type": "uint256[]"
        },
        {
          "internalType": "bytes[]",
          "name": "calldatas",
          "type": "bytes[]"
        },
        {
          "internalType": "bytes32",
          "name": "descriptionHash",
          "type": "bytes32"
        }
      ],
      "name": "execute",
      "outputs": [
        {
          "internalType": "uint256",
          "name": "",
          "type": "uint256"
        }
      ],
      "stateMutability": "payable",
      "type": "function",
      "payable": true
    },
    {
      "inputs": [
        {
          "internalType": "uint256",
          "name": "proposalId",
          "type": "uint256"
        },
        {
          "internalType": "address",
          "name": "account",
          "type": "address"
        }
      ],
      "name": "hasVoted",
      "outputs": [
        {
          "internalType": "bool",
          "name": "",
          "type": "bool"
        }
      ],
      "stateMutability": "view",
      "type": "function",
      "constant": true
    },
    {
      "inputs": [
        {
          "internalType": "address[]",
          "name": "targets",
          "type": "address[]"
        },
        {
          "internalType": "uint256[]",
          "name": "values",
          "type": "uint256[]"
        },
        {
          "internalType": "bytes[]",
          "name": "calldatas",
          "type": "bytes[]"
        },
        {
          "internalType": "bytes32",
          "name": "descriptionHash",
          "type": "bytes32"
        }
      ],
      "name": "hashProposal",
      "outputs": [
        {
          "internalType": "uint256",
          "name": "",
          "type": "uint256"
        }
      ],
      "stateMutability": "pure",
      "type": "function",
      "constant": true
    },
    {
      "inputs": [],
      "name": "name",
      "outputs": [
        {
          "internalType": "string",
          "name": "",
          "type": "string"
        }
      ],
      "stateMutability": "view",
      "type": "function",
      "constant": true
    },
    {
      "inputs": [
        {
          "internalType": "uint256",
          "name": "proposalId",
          "type": "uint256"
        }
      ],
      "name": "proposalDeadline",
      "outputs": [
        {
          "internalType": "uint256",
          "name": "",
          "type": "uint256"
        }
      ],
      "stateMutability": "view",
      "type": "function",
      "constant": true
    },
    {
      "inputs": [
        {
          "internalType": "uint256",
          "name": "proposalId",
          "type": "uint256"
        }
      ],
      "name": "proposalEta",
      "outputs": [
        {
          "internalType": "uint256",
          "name": "",
          "type": "uint256"
        }
      ],
      "stateMutability": "view",
      "type": "function",
      "constant": true
    },
    {
      "inputs": [
        {
          "internalType": "uint256",
          "name": "proposalId",
          "type": "uint256"
        }
      ],
      "name": "proposalSnapshot",
      "outputs": [
        {
          "internalType": "uint256",
          "name": "",
          "type": "uint256"
        }
      ],
      "stateMutability": "view",
      "type": "function",
      "constant": true
    },
    {
      "inputs": [],
      "name": "proposalThreshold",
      "outputs": [
        {
          "internalType": "uint256",
          "name": "",
          "type": "uint256"
        }
      ],
      "stateMutability": "view",
      "type": "function",
      "constant": true
    },
    {
      "inputs": [
        {
          "internalType": "uint256",
          "name": "proposalId",
          "type": "uint256"
        }
      ],
      "name": "proposalVotes",
      "outputs": [
        {
          "internalType": "uint256",
          "name": "againstVotes",
          "type": "uint256"
        },
        {
          "internalType": "uint256",
          "name": "forVotes",
          "type": "uint256"
        },
        {
          "internalType": "uint256",
          "name": "abstainVotes",
          "type": "uint256"
        }
      ],
      "stateMutability": "view",
      "type": "function",
      "constant": true
    },
    {
      "inputs": [
        {
          "internalType": "address[]",
          "name": "targets",
          "type": "address[]"
        },
        {
          "internalType": "uint256[]",
          "name": "values",
          "type": "uint256[]"
        },
        {
          "internalType": "bytes[]",
          "name": "calldatas",
          "type": "bytes[]"
        },
        {
          "internalType": "bytes32",
          "name": "descriptionHash",
          "type": "bytes32"
        }
      ],
      "name": "queue",
      "outputs": [
        {
          "internalType": "uint256",
          "name": "",
          "type": "uint256"
        }
      ],
      "stateMutability": "nonpayable",
      "type": "function"
    },
    {
      "inputs": [],
      "name": "quorumDenominator",
      "outputs": [
        {
          "internalType": "uint256",
          "name": "",
          "type": "uint256"
        }
      ],
      "stateMutability": "view",
      "type": "function",
      "constant": true
    },
    {
      "inputs": [],
      "name": "quorumNumerator",
      "outputs": [
        {
          "internalType": "uint256",
          "name": "",
          "type": "uint256"
        }
      ],
      "stateMutability": "view",
      "type": "function",
      "constant": true
    },
    {
      "inputs": [],
      "name": "timelock",
      "outputs": [
        {
          "internalType": "address",
          "name": "",
          "type": "address"
        }
      ],
      "stateMutability": "view",
      "type": "function",
      "constant": true
    },
    {
      "inputs": [],
      "name": "token",
      "outputs": [
        {
          "internalType": "contract ERC20Votes",
          "name": "",
          "type": "address"
        }
      ],
      "stateMutability": "view",
      "type": "function",
      "constant": true
    },
    {
      "inputs": [
        {
          "internalType": "uint256",
          "name": "newQuorumNumerator",
          "type": "uint256"
        }
      ],
      "name": "updateQuorumNumerator",
      "outputs": [],
      "stateMutability": "nonpayable",
      "type": "function"
    },
    {
      "inputs": [
        {
          "internalType": "contract TimelockController",
          "name": "newTimelock",
          "type": "address"
        }
      ],
      "name": "updateTimelock",
      "outputs": [],
      "stateMutability": "nonpayable",
      "type": "function"
    },
    {
      "inputs": [],
      "name": "version",
      "outputs": [
        {
          "internalType": "string",
          "name": "",
          "type": "string"
        }
      ],
      "stateMutability": "view",
      "type": "function",
      "constant": true
    },
    {
      "inputs": [],
      "name": "votingDelay_",
      "outputs": [
        {
          "internalType": "uint256",
          "name": "",
          "type": "uint256"
        }
      ],
      "stateMutability": "view",
      "type": "function",
      "constant": true
    },
    {
      "inputs": [],
      "name": "votingPeriod_",
      "outputs": [
        {
          "internalType": "uint256",
          "name": "",
          "type": "uint256"
        }
      ],
      "stateMutability": "view",
      "type": "function",
      "constant": true
    },
    {
      "stateMutability": "payable",
      "type": "receive",
      "payable": true
    },
    {
      "inputs": [],
      "name": "votingDelay",
      "outputs": [
        {
          "internalType": "uint256",
          "name": "",
          "type": "uint256"
        }
      ],
      "stateMutability": "view",
      "type": "function",
      "constant": true
    },
    {
      "inputs": [],
      "name": "votingPeriod",
      "outputs": [
        {
          "internalType": "uint256",
          "name": "",
          "type": "uint256"
        }
      ],
      "stateMutability": "view",
      "type": "function",
      "constant": true
    },
    {
      "inputs": [
        {
          "internalType": "uint256",
          "name": "blockNumber",
          "type": "uint256"
        }
      ],
      "name": "quorum",
      "outputs": [
        {
          "internalType": "uint256",
          "name": "",
          "type": "uint256"
        }
      ],
      "stateMutability": "view",
      "type": "function",
      "constant": true
    },
    {
      "inputs": [
        {
          "internalType": "address",
          "name": "account",
          "type": "address"
        },
        {
          "internalType": "uint256",
          "name": "blockNumber",
          "type": "uint256"
        }
      ],
      "name": "getVotes",
      "outputs": [
        {
          "internalType": "uint256",
          "name": "",
          "type": "uint256"
        }
      ],
      "stateMutability": "view",
      "type": "function",
      "constant": true
    },
    {
      "inputs": [
        {
          "internalType": "uint256",
          "name": "proposalId",
          "type": "uint256"
        }
      ],
      "name": "state",
      "outputs": [
        {
          "internalType": "enum IGovernor.ProposalState",
          "name": "",
          "type": "uint8"
        }
      ],
      "stateMutability": "view",
      "type": "function",
      "constant": true
    },
    {
      "inputs": [
        {
          "internalType": "address[]",
          "name": "targets",
          "type": "address[]"
        },
        {
          "internalType": "uint256[]",
          "name": "values",
          "type": "uint256[]"
        },
        {
          "internalType": "bytes[]",
          "name": "calldatas",
          "type": "bytes[]"
        },
        {
          "internalType": "string",
          "name": "description",
          "type": "string"
        }
      ],
      "name": "propose",
      "outputs": [
        {
          "internalType": "uint256",
          "name": "",
          "type": "uint256"
        }
      ],
      "stateMutability": "nonpayable",
      "type": "function"
    },
    {
      "inputs": [
        {
          "internalType": "bytes4",
          "name": "interfaceId",
          "type": "bytes4"
        }
      ],
      "name": "supportsInterface",
      "outputs": [
        {
          "internalType": "bool",
          "name": "",
          "type": "bool"
        }
      ],
      "stateMutability": "view",
      "type": "function",
      "constant": true
    }
  ],
  "bytecode": "0x6101606040523480156200001257600080fd5b506040516200515e3803806200515e833981810160405281019062000038919062000548565b8383866040518060400160405280601381526020017f4441707020556e69766572736974792044414f000000000000000000000000008152508062000082620001c160201b60201c565b60008280519060200120905060008280519060200120905060007f8b73c3c69bb8fe3d512ecc4cf759cc79239f7b179b0ffacaa9a75d522b39400f90508260e081815250508161010081815250504660a08181525050620000eb818484620001fe60201b60201c565b608081815250503073ffffffffffffffffffffffffffffffffffffffff1660c08173ffffffffffffffffffffffffffffffffffffffff1681525050806101208181525050505050505080600090805190602001906200014c92919062000386565b50508073ffffffffffffffffffffffffffffffffffffffff166101408173ffffffffffffffffffffffffffffffffffffffff16815250505062000195816200023a60201b60201c565b50620001a781620002dc60201b60201c565b5081600681905550806007819055505050505050620007f8565b60606040518060400160405280600181526020017f3100000000000000000000000000000000000000000000000000000000000000815250905090565b600083838346306040516020016200021b9594939291906200060d565b6040516020818303038152906040528051906020012090509392505050565b6200024a6200037d60201b60201c565b8111156200028f576040517f08c379a0000000000000000000000000000000000000000000000000000000008152600401620002869062000717565b60405180910390fd5b60006003549050816003819055507f0553476bf02ef2726e8ce5ced78d63e26e602e4a2257b1f559418e24b46339978183604051620002d092919062000739565b60405180910390a15050565b7f08f74ea46ef7894f65eabfb5e6e695de773a000b47c529ab559178069b226401600460009054906101000a900473ffffffffffffffffffffffffffffffffffffffff16826040516200033192919062000766565b60405180910390a180600460006101000a81548173ffffffffffffffffffffffffffffffffffffffff021916908373ffffffffffffffffffffffffffffffffffffffff16021790555050565b60006064905090565b8280546200039490620007c2565b90600052602060002090601f016020900481019282620003b8576000855562000404565b82601f10620003d357805160ff191683800117855562000404565b8280016001018555821562000404579182015b8281111562000403578251825591602001919060010190620003e6565b5b50905062000413919062000417565b5090565b5b808211156200043257600081600090555060010162000418565b5090565b600080fd5b600073ffffffffffffffffffffffffffffffffffffffff82169050919050565b600062000468826200043b565b9050919050565b60006200047c826200045b565b9050919050565b6200048e816200046f565b81146200049a57600080fd5b50565b600081519050620004ae8162000483565b92915050565b6000620004c1826200043b565b9050919050565b6000620004d582620004b4565b9050919050565b620004e781620004c8565b8114620004f357600080fd5b50565b6000815190506200050781620004dc565b92915050565b6000819050919050565b62000522816200050d565b81146200052e57600080fd5b50565b600081519050620005428162000517565b92915050565b600080600080600060a0868803121562000567576200056662000436565b5b600062000577888289016200049d565b95505060206200058a88828901620004f6565b94505060406200059d8882890162000531565b9350506060620005b08882890162000531565b9250506080620005c38882890162000531565b9150509295509295909350565b6000819050919050565b620005e581620005d0565b82525050565b620005f6816200050d565b82525050565b62000607816200045b565b82525050565b600060a082019050620006246000830188620005da565b620006336020830187620005da565b620006426040830186620005da565b620006516060830185620005eb565b620006606080830184620005fc565b9695505050505050565b600082825260208201905092915050565b7f476f7665726e6f72566f74657351756f72756d4672616374696f6e3a2071756f60008201527f72756d4e756d657261746f72206f7665722071756f72756d44656e6f6d696e6160208201527f746f720000000000000000000000000000000000000000000000000000000000604082015250565b6000620006ff6043836200066a565b91506200070c826200067b565b606082019050919050565b600060208201905081810360008301526200073281620006f0565b9050919050565b6000604082019050620007506000830185620005eb565b6200075f6020830184620005eb565b9392505050565b60006040820190506200077d6000830185620005fc565b6200078c6020830184620005fc565b9392505050565b7f4e487b7100000000000000000000000000000000000000000000000000000000600052602260045260246000fd5b60006002820490506001821680620007db57607f821691505b60208210811415620007f257620007f162000793565b5b50919050565b60805160a05160c05160e0516101005161012051610140516148fd620008616000396000818161134701528181611b3f0152611c0401526000611e8c01526000611ece01526000611ead01526000611de201526000611e3801526000611e6101526148fd6000f3fe6080604052600436106101dc5760003560e01c80637b3c71d311610102578063c01f9e3711610095578063deaaa7cc11610064578063deaaa7cc1461079d578063eb9019d4146107c8578063f8ce560a14610805578063fc0c546a1461084257610222565b8063c01f9e37146106cd578063c59057e41461070a578063d33219b414610747578063dd4e2ba51461077257610222565b8063a7713a70116100d1578063a7713a7014610611578063a890c9101461063c578063ab58fb8e14610665578063b58131b0146106a257610222565b80637b3c71d3146105415780637d5e81e21461057e5780638b02dbde146105bb57806397c3d334146105e657610222565b80633932abb11161017a5780634385963211610149578063438596321461045d578063544ffc9c1461049a57806354fd4d50146104d9578063567813881461050457610222565b80633932abb11461038d5780633bccf4fd146103b85780633e4f49e6146103f557806342024c2b1461043257610222565b806306fdde03116101b657806306fdde03146102b8578063160cbed7146102e35780632656227d146103205780632d63f6931461035057610222565b806301ffc9a71461022757806302a251a31461026457806306f3f9e61461028f57610222565b36610222573073ffffffffffffffffffffffffffffffffffffffff1661020061086d565b73ffffffffffffffffffffffffffffffffffffffff161461022057600080fd5b005b600080fd5b34801561023357600080fd5b5061024e60048036038101906102499190612858565b61087c565b60405161025b91906128a0565b60405180910390f35b34801561027057600080fd5b5061027961088e565b60405161028691906128d4565b60405180910390f35b34801561029b57600080fd5b506102b660048036038101906102b1919061291b565b610898565b005b3480156102c457600080fd5b506102cd610920565b6040516102da91906129e1565b60405180910390f35b3480156102ef57600080fd5b5061030a60048036038101906103059190612e38565b6109b2565b60405161031791906128d4565b60405180910390f35b61033a60048036038101906103359190612e38565b610c8a565b60405161034791906128d4565b60405180910390f35b34801561035c57600080fd5b506103776004803603810190610372919061291b565b610dbd565b60405161038491906128d4565b60405180910390f35b34801561039957600080fd5b506103a2610e2b565b6040516103af91906128d4565b60405180910390f35b3480156103c457600080fd5b506103df60048036038101906103da9190612f2c565b610e35565b6040516103ec91906128d4565b60405180910390f35b34801561040157600080fd5b5061041c6004803603810190610417919061291b565b610ebf565b604051610429919061301e565b60405180910390f35b34801561043e57600080fd5b50610447610ed1565b60405161045491906128d4565b60405180910390f35b34801561046957600080fd5b50610484600480360381019061047f9190613039565b610ed7565b60405161049191906128a0565b60405180910390f35b3480156104a657600080fd5b506104c160048036038101906104bc919061291b565b610f42565b6040516104d093929190613079565b60405180910390f35b3480156104e557600080fd5b506104ee610f7a565b6040516104fb91906129e1565b60405180910390f35b34801561051057600080fd5b5061052b600480360381019061052691906130b0565b610fb7565b60405161053891906128d4565b60405180910390f35b34801561054d57600080fd5b506105686004803603810190610563919061314b565b610fe8565b60405161057591906128d4565b60405180910390f35b34801561058a57600080fd5b506105a560048036038101906105a09190613260565b611050565b6040516105b291906128d4565b60405180910390f35b3480156105c757600080fd5b506105d0611068565b6040516105dd91906128d4565b60405180910390f35b3480156105f257600080fd5b506105fb61106e565b60405161060891906128d4565b60405180910390f35b34801561061d57600080fd5b50610626611077565b60405161063391906128d4565b60405180910390f35b34801561064857600080fd5b50610663600480360381019061065e9190613387565b611081565b005b34801561067157600080fd5b5061068c6004803603810190610687919061291b565b611109565b60405161069991906128d4565b60405180910390f35b3480156106ae57600080fd5b506106b76111e5565b6040516106c491906128d4565b60405180910390f35b3480156106d957600080fd5b506106f460048036038101906106ef919061291b565b6111ea565b60405161070191906128d4565b60405180910390f35b34801561071657600080fd5b50610731600480360381019061072c9190612e38565b611258565b60405161073e91906128d4565b60405180910390f35b34801561075357600080fd5b5061075c611294565b60405161076991906133c3565b60405180910390f35b34801561077e57600080fd5b506107876112be565b60405161079491906129e1565b60405180910390f35b3480156107a957600080fd5b506107b26112fb565b6040516107bf91906133ed565b60405180910390f35b3480156107d457600080fd5b506107ef60048036038101906107ea9190613408565b61131f565b6040516107fc91906128d4565b60405180910390f35b34801561081157600080fd5b5061082c6004803603810190610827919061291b565b611333565b60405161083991906128d4565b60405180910390f35b34801561084e57600080fd5b50610857611345565b60405161086491906134a7565b60405180910390f35b6000610877611369565b905090565b600061088782611393565b9050919050565b6000600754905090565b6108a061086d565b73ffffffffffffffffffffffffffffffffffffffff166108be61140d565b73ffffffffffffffffffffffffffffffffffffffff1614610914576040517f08c379a000000000000000000000000000000000000000000000000000000000815260040161090b9061350e565b60405180910390fd5b61091d81611415565b50565b60606000805461092f9061355d565b80601f016020809104026020016040519081016040528092919081815260200182805461095b9061355d565b80156109a85780601f1061097d576101008083540402835291602001916109a8565b820191906000526020600020905b81548152906001019060200180831161098b57829003601f168201915b5050505050905090565b6000806109c186868686611258565b9050600460078111156109d7576109d6612fa7565b5b6109e082610ebf565b60078111156109f2576109f1612fa7565b5b14610a32576040517f08c379a0000000000000000000000000000000000000000000000000000000008152600401610a2990613601565b60405180910390fd5b6000600460009054906101000a900473ffffffffffffffffffffffffffffffffffffffff1673ffffffffffffffffffffffffffffffffffffffff1663f27a0c926040518163ffffffff1660e01b815260040160206040518083038186803b158015610a9c57600080fd5b505afa158015610ab0573d6000803e3d6000fd5b505050506040513d601f19601f82011682018060405250810190610ad49190613636565b9050600460009054906101000a900473ffffffffffffffffffffffffffffffffffffffff1673ffffffffffffffffffffffffffffffffffffffff1663b1c5f4278888886000896040518663ffffffff1660e01b8152600401610b3a95949392919061393e565b60206040518083038186803b158015610b5257600080fd5b505afa158015610b66573d6000803e3d6000fd5b505050506040513d601f19601f82011682018060405250810190610b8a91906139bb565b6005600084815260200190815260200160002081905550600460009054906101000a900473ffffffffffffffffffffffffffffffffffffffff1673ffffffffffffffffffffffffffffffffffffffff16638f2a0bb0888888600089876040518763ffffffff1660e01b8152600401610c07969594939291906139e8565b600060405180830381600087803b158015610c2157600080fd5b505af1158015610c35573d6000803e3d6000fd5b505050507f9a2e42fd6722813d69113e7d0079d3d940171428df7373df9c7f7617cfda2892828242610c679190613a8d565b604051610c75929190613ae3565b60405180910390a18192505050949350505050565b600080610c9986868686611258565b90506000610ca682610ebf565b905060046007811115610cbc57610cbb612fa7565b5b816007811115610ccf57610cce612fa7565b5b1480610cff575060056007811115610cea57610ce9612fa7565b5b816007811115610cfd57610cfc612fa7565b5b145b610d3e576040517f08c379a0000000000000000000000000000000000000000000000000000000008152600401610d3590613601565b60405180910390fd5b600180600084815260200190815260200160002060020160006101000a81548160ff0219169083151502179055507f712ae1383f79ac853f8d882153778e0260ef8f03b504e2866e0593e04d2b291f82604051610d9b91906128d4565b60405180910390a1610db082888888886114aa565b8192505050949350505050565b6000610e1a600160008481526020019081526020016000206000016040518060200160405290816000820160009054906101000a900467ffffffffffffffff1667ffffffffffffffff1667ffffffffffffffff16815250506114be565b67ffffffffffffffff169050919050565b6000600654905090565b600080610e96610e8e7f150214d74d59b7d1e90c73fc22ef3d991dd0a76b046543d4d80ab92d2a50328f8989604051602001610e7393929190613b1b565b604051602081830303815290604052805190602001206114cc565b8686866114e6565b9050610eb387828860405180602001604052806000815250611511565b91505095945050505050565b6000610eca82611665565b9050919050565b60075481565b60006002600084815260200190815260200160002060030160008373ffffffffffffffffffffffffffffffffffffffff1673ffffffffffffffffffffffffffffffffffffffff16815260200190815260200160002060009054906101000a900460ff16905092915050565b600080600080600260008681526020019081526020016000209050806000015481600101548260020154935093509350509193909250565b60606040518060400160405280600181526020017f3100000000000000000000000000000000000000000000000000000000000000815250905090565b600080610fc261140d565b9050610fdf84828560405180602001604052806000815250611511565b91505092915050565b600080610ff361140d565b905061104586828787878080601f016020809104026020016040519081016040528093929190818152602001838380828437600081840152601f19601f82011690508083019250505050505050611511565b915050949350505050565b600061105e8585858561179c565b9050949350505050565b60065481565b60006064905090565b6000600354905090565b61108961086d565b73ffffffffffffffffffffffffffffffffffffffff166110a761140d565b73ffffffffffffffffffffffffffffffffffffffff16146110fd576040517f08c379a00000000000000000000000000000000000000000000000000000000081526004016110f49061350e565b60405180910390fd5b61110681611a9c565b50565b600080600460009054906101000a900473ffffffffffffffffffffffffffffffffffffffff1673ffffffffffffffffffffffffffffffffffffffff1663d45c443560056000868152602001908152602001600020546040518263ffffffff1660e01b815260040161117a91906133ed565b60206040518083038186803b15801561119257600080fd5b505afa1580156111a6573d6000803e3d6000fd5b505050506040513d601f19601f820116820180604052508101906111ca9190613636565b9050600181146111da57806111dd565b60005b915050919050565b600090565b6000611247600160008481526020019081526020016000206001016040518060200160405290816000820160009054906101000a900467ffffffffffffffff1667ffffffffffffffff1667ffffffffffffffff16815250506114be565b67ffffffffffffffff169050919050565b6000848484846040516020016112719493929190613b52565b6040516020818303038152906040528051906020012060001c9050949350505050565b6000600460009054906101000a900473ffffffffffffffffffffffffffffffffffffffff16905090565b60606040518060400160405280602081526020017f737570706f72743d627261766f2671756f72756d3d666f722c6162737461696e815250905090565b7f150214d74d59b7d1e90c73fc22ef3d991dd0a76b046543d4d80ab92d2a50328f81565b600061132b8383611b3b565b905092915050565b600061133e82611bf0565b9050919050565b7f000000000000000000000000000000000000000000000000000000000000000081565b6000600460009054906101000a900473ffffffffffffffffffffffffffffffffffffffff16905090565b60007f6e665ced000000000000000000000000000000000000000000000000000000007bffffffffffffffffffffffffffffffffffffffffffffffffffffffff1916827bffffffffffffffffffffffffffffffffffffffffffffffffffffffff19161480611406575061140582611cc6565b5b9050919050565b600033905090565b61141d61106e565b81111561145f576040517f08c379a000000000000000000000000000000000000000000000000000000000815260040161145690613c44565b60405180910390fd5b60006003549050816003819055507f0553476bf02ef2726e8ce5ced78d63e26e602e4a2257b1f559418e24b4633997818360405161149e929190613ae3565b60405180910390a15050565b6114b78585858585611d40565b5050505050565b600081600001519050919050565b60006114df6114d9611dde565b83611ef8565b9050919050565b60008060006114f787878787611f2b565b9150915061150481612038565b8192505050949350505050565b6000806001600087815260200190815260200160002090506001600781111561153d5761153c612fa7565b5b61154687610ebf565b600781111561155857611557612fa7565b5b14611598576040517f08c379a000000000000000000000000000000000000000000000000000000000815260040161158f90613cd6565b60405180910390fd5b60006115f6866115e7846000016040518060200160405290816000820160009054906101000a900467ffffffffffffffff1667ffffffffffffffff1667ffffffffffffffff16815250506114be565b67ffffffffffffffff1661131f565b90506116048787878461220d565b8573ffffffffffffffffffffffffffffffffffffffff167fb8e138887d0aa13bab447e82de9d5c1777041ecd21ca36ba824ff1e6c07ddda4888784886040516116509493929190613cf6565b60405180910390a28092505050949350505050565b60008061167183612413565b90506004600781111561168757611686612fa7565b5b81600781111561169a57611699612fa7565b5b146116a85780915050611797565b6000600560008581526020019081526020016000205490506000801b8114156116d5578192505050611797565b600460009054906101000a900473ffffffffffffffffffffffffffffffffffffffff1673ffffffffffffffffffffffffffffffffffffffff16632ab0f529826040518263ffffffff1660e01b815260040161173091906133ed565b60206040518083038186803b15801561174857600080fd5b505afa15801561175c573d6000803e3d6000fd5b505050506040513d601f19601f820116820180604052508101906117809190613d6e565b1561179057600792505050611797565b6005925050505b919050565b60006117a66111e5565b6117bc336001436117b79190613d9b565b61131f565b10156117fd576040517f08c379a00000000000000000000000000000000000000000000000000000000081526004016117f490613e67565b60405180910390fd5b60006118128686868680519060200120611258565b90508451865114611858576040517f08c379a000000000000000000000000000000000000000000000000000000000815260040161184f90613ef9565b60405180910390fd5b835186511461189c576040517f08c379a000000000000000000000000000000000000000000000000000000000815260040161189390613ef9565b60405180910390fd5b60008651116118e0576040517f08c379a00000000000000000000000000000000000000000000000000000000081526004016118d790613f65565b60405180910390fd5b6000600160008381526020019081526020016000209050611940816000016040518060200160405290816000820160009054906101000a900467ffffffffffffffff1667ffffffffffffffff1667ffffffffffffffff16815250506125f0565b61197f576040517f08c379a000000000000000000000000000000000000000000000000000000000815260040161197690613ff7565b60405180910390fd5b600061199161198c610e2b565b61260a565b61199a4361260a565b6119a4919061402b565b905060006119b86119b361088e565b61260a565b826119c3919061402b565b90506119db828460000161266190919063ffffffff16565b6119f1818460010161266190919063ffffffff16565b7f7d84a6263ae0d98d3329bd7b46bb4e8d6f98cd35a7adb45c274c8b7fd5ebd5e084611a1b61140d565b8b8b8d5167ffffffffffffffff811115611a3857611a37612a08565b5b604051908082528060200260200182016040528015611a6b57816020015b6060815260200190600190039081611a565790505b508c88888e604051611a85999897969594939291906141a6565b60405180910390a183945050505050949350505050565b7f08f74ea46ef7894f65eabfb5e6e695de773a000b47c529ab559178069b226401600460009054906101000a900473ffffffffffffffffffffffffffffffffffffffff1682604051611aef929190614256565b60405180910390a180600460006101000a81548173ffffffffffffffffffffffffffffffffffffffff021916908373ffffffffffffffffffffffffffffffffffffffff16021790555050565b60007f000000000000000000000000000000000000000000000000000000000000000073ffffffffffffffffffffffffffffffffffffffff16633a46b1a884846040518363ffffffff1660e01b8152600401611b9892919061427f565b60206040518083038186803b158015611bb057600080fd5b505afa158015611bc4573d6000803e3d6000fd5b505050506040513d601f19601f82011682018060405250810190611be89190613636565b905092915050565b6000611bfa61106e565b611c02611077565b7f000000000000000000000000000000000000000000000000000000000000000073ffffffffffffffffffffffffffffffffffffffff16638e539e8c856040518263ffffffff1660e01b8152600401611c5b91906128d4565b60206040518083038186803b158015611c7357600080fd5b505afa158015611c87573d6000803e3d6000fd5b505050506040513d601f19601f82011682018060405250810190611cab9190613636565b611cb591906142a8565b611cbf9190614331565b9050919050565b60007fbf26d897000000000000000000000000000000000000000000000000000000007bffffffffffffffffffffffffffffffffffffffffffffffffffffffff1916827bffffffffffffffffffffffffffffffffffffffffffffffffffffffff19161480611d395750611d3882612690565b5b9050919050565b600460009054906101000a900473ffffffffffffffffffffffffffffffffffffffff1673ffffffffffffffffffffffffffffffffffffffff1663e38335e5348686866000876040518763ffffffff1660e01b8152600401611da595949392919061393e565b6000604051808303818588803b158015611dbe57600080fd5b505af1158015611dd2573d6000803e3d6000fd5b50505050505050505050565b60007f000000000000000000000000000000000000000000000000000000000000000073ffffffffffffffffffffffffffffffffffffffff163073ffffffffffffffffffffffffffffffffffffffff16148015611e5a57507f000000000000000000000000000000000000000000000000000000000000000046145b15611e87577f00000000000000000000000000000000000000000000000000000000000000009050611ef5565b611ef27f00000000000000000000000000000000000000000000000000000000000000007f00000000000000000000000000000000000000000000000000000000000000007f00000000000000000000000000000000000000000000000000000000000000006126fa565b90505b90565b60008282604051602001611f0d9291906143da565b60405160208183030381529060405280519060200120905092915050565b6000807f7fffffffffffffffffffffffffffffff5d576e7357a4501ddfe92f46681b20a08360001c1115611f6657600060039150915061202f565b601b8560ff1614158015611f7e5750601c8560ff1614155b15611f9057600060049150915061202f565b600060018787878760405160008152602001604052604051611fb59493929190614411565b6020604051602081039080840390855afa158015611fd7573d6000803e3d6000fd5b505050602060405103519050600073ffffffffffffffffffffffffffffffffffffffff168173ffffffffffffffffffffffffffffffffffffffff1614156120265760006001925092505061202f565b80600092509250505b94509492505050565b6000600481111561204c5761204b612fa7565b5b81600481111561205f5761205e612fa7565b5b141561206a5761220a565b6001600481111561207e5761207d612fa7565b5b81600481111561209157612090612fa7565b5b14156120d2576040517f08c379a00000000000000000000000000000000000000000000000000000000081526004016120c9906144a2565b60405180910390fd5b600260048111156120e6576120e5612fa7565b5b8160048111156120f9576120f8612fa7565b5b141561213a576040517f08c379a00000000000000000000000000000000000000000000000000000000081526004016121319061450e565b60405180910390fd5b6003600481111561214e5761214d612fa7565b5b81600481111561216157612160612fa7565b5b14156121a2576040517f08c379a0000000000000000000000000000000000000000000000000000000008152600401612199906145a0565b60405180910390fd5b6004808111156121b5576121b4612fa7565b5b8160048111156121c8576121c7612fa7565b5b1415612209576040517f08c379a000000000000000000000000000000000000000000000000000000000815260040161220090614632565b60405180910390fd5b5b50565b60006002600086815260200190815260200160002090508060030160008573ffffffffffffffffffffffffffffffffffffffff1673ffffffffffffffffffffffffffffffffffffffff16815260200190815260200160002060009054906101000a900460ff16156122b3576040517f08c379a00000000000000000000000000000000000000000000000000000000081526004016122aa906146c4565b60405180910390fd5b60018160030160008673ffffffffffffffffffffffffffffffffffffffff1673ffffffffffffffffffffffffffffffffffffffff16815260200190815260200160002060006101000a81548160ff0219169083151502179055506000600281111561232157612320612fa7565b5b60ff168360ff16141561234e57818160000160008282546123429190613a8d565b9250508190555061240c565b6001600281111561236257612361612fa7565b5b60ff168360ff16141561238f57818160010160008282546123839190613a8d565b9250508190555061240b565b6002808111156123a2576123a1612fa7565b5b60ff168360ff1614156123cf57818160020160008282546123c39190613a8d565b9250508190555061240a565b6040517f08c379a000000000000000000000000000000000000000000000000000000000815260040161240190614756565b60405180910390fd5b5b5b5050505050565b60008060016000848152602001908152602001600020604051806080016040529081600082016040518060200160405290816000820160009054906101000a900467ffffffffffffffff1667ffffffffffffffff1667ffffffffffffffff16815250508152602001600182016040518060200160405290816000820160009054906101000a900467ffffffffffffffff1667ffffffffffffffff1667ffffffffffffffff168152505081526020016002820160009054906101000a900460ff161515151581526020016002820160019054906101000a900460ff161515151581525050905080604001511561250c5760079150506125eb565b8060600151156125205760029150506125eb565b4361252e82600001516114be565b67ffffffffffffffff16106125475760009150506125eb565b4361255582602001516114be565b67ffffffffffffffff161061256e5760019150506125eb565b61257b8160200151612734565b156125b05761258983612760565b801561259a5750612599836127a7565b5b6125a55760036125a8565b60045b9150506125eb565b6040517f08c379a00000000000000000000000000000000000000000000000000000000081526004016125e2906147c2565b60405180910390fd5b919050565b600080826000015167ffffffffffffffff16149050919050565b600067ffffffffffffffff8016821115612659576040517f08c379a000000000000000000000000000000000000000000000000000000000815260040161265090614854565b60405180910390fd5b819050919050565b808260000160006101000a81548167ffffffffffffffff021916908367ffffffffffffffff1602179055505050565b60007f01ffc9a7000000000000000000000000000000000000000000000000000000007bffffffffffffffffffffffffffffffffffffffffffffffffffffffff1916827bffffffffffffffffffffffffffffffffffffffffffffffffffffffff1916149050919050565b60008383834630604051602001612715959493929190614874565b6040516020818303038152906040528051906020012090509392505050565b600061273f826127d2565b8015612759575043826000015167ffffffffffffffff1611155b9050919050565b6000806002600084815260200190815260200160002090508060020154816001015461278c9190613a8d565b61279d61279885610dbd565b611333565b1115915050919050565b6000806002600084815260200190815260200160002090508060000154816001015411915050919050565b600080826000015167ffffffffffffffff16119050919050565b6000604051905090565b600080fd5b600080fd5b60007fffffffff0000000000000000000000000000000000000000000000000000000082169050919050565b61283581612800565b811461284057600080fd5b50565b6000813590506128528161282c565b92915050565b60006020828403121561286e5761286d6127f6565b5b600061287c84828501612843565b91505092915050565b60008115159050919050565b61289a81612885565b82525050565b60006020820190506128b56000830184612891565b92915050565b6000819050919050565b6128ce816128bb565b82525050565b60006020820190506128e960008301846128c5565b92915050565b6128f8816128bb565b811461290357600080fd5b50565b600081359050612915816128ef565b92915050565b600060208284031215612931576129306127f6565b5b600061293f84828501612906565b91505092915050565b600081519050919050565b600082825260208201905092915050565b60005b83811015612982578082015181840152602081019050612967565b83811115612991576000848401525b50505050565b6000601f19601f8301169050919050565b60006129b382612948565b6129bd8185612953565b93506129cd818560208601612964565b6129d681612997565b840191505092915050565b600060208201905081810360008301526129fb81846129a8565b905092915050565b600080fd5b7f4e487b7100000000000000000000000000000000000000000000000000000000600052604160045260246000fd5b612a4082612997565b810181811067ffffffffffffffff82111715612a5f57612a5e612a08565b5b80604052505050565b6000612a726127ec565b9050612a7e8282612a37565b919050565b600067ffffffffffffffff821115612a9e57612a9d612a08565b5b602082029050602081019050919050565b600080fd5b600073ffffffffffffffffffffffffffffffffffffffff82169050919050565b6000612adf82612ab4565b9050919050565b612aef81612ad4565b8114612afa57600080fd5b50565b600081359050612b0c81612ae6565b92915050565b6000612b25612b2084612a83565b612a68565b90508083825260208201905060208402830185811115612b4857612b47612aaf565b5b835b81811015612b715780612b5d8882612afd565b845260208401935050602081019050612b4a565b5050509392505050565b600082601f830112612b9057612b8f612a03565b5b8135612ba0848260208601612b12565b91505092915050565b600067ffffffffffffffff821115612bc457612bc3612a08565b5b602082029050602081019050919050565b6000612be8612be384612ba9565b612a68565b90508083825260208201905060208402830185811115612c0b57612c0a612aaf565b5b835b81811015612c345780612c208882612906565b845260208401935050602081019050612c0d565b5050509392505050565b600082601f830112612c5357612c52612a03565b5b8135612c63848260208601612bd5565b91505092915050565b600067ffffffffffffffff821115612c8757612c86612a08565b5b602082029050602081019050919050565b600080fd5b600067ffffffffffffffff821115612cb857612cb7612a08565b5b612cc182612997565b9050602081019050919050565b82818337600083830152505050565b6000612cf0612ceb84612c9d565b612a68565b905082815260208101848484011115612d0c57612d0b612c98565b5b612d17848285612cce565b509392505050565b600082601f830112612d3457612d33612a03565b5b8135612d44848260208601612cdd565b91505092915050565b6000612d60612d5b84612c6c565b612a68565b90508083825260208201905060208402830185811115612d8357612d82612aaf565b5b835b81811015612dca57803567ffffffffffffffff811115612da857612da7612a03565b5b808601612db58982612d1f565b85526020850194505050602081019050612d85565b5050509392505050565b600082601f830112612de957612de8612a03565b5b8135612df9848260208601612d4d565b91505092915050565b6000819050919050565b612e1581612e02565b8114612e2057600080fd5b50565b600081359050612e3281612e0c565b92915050565b60008060008060808587031215612e5257612e516127f6565b5b600085013567ffffffffffffffff811115612e7057612e6f6127fb565b5b612e7c87828801612b7b565b945050602085013567ffffffffffffffff811115612e9d57612e9c6127fb565b5b612ea987828801612c3e565b935050604085013567ffffffffffffffff811115612eca57612ec96127fb565b5b612ed687828801612dd4565b9250506060612ee787828801612e23565b91505092959194509250565b600060ff82169050919050565b612f0981612ef3565b8114612f1457600080fd5b50565b600081359050612f2681612f00565b92915050565b600080600080600060a08688031215612f4857612f476127f6565b5b6000612f5688828901612906565b9550506020612f6788828901612f17565b9450506040612f7888828901612f17565b9350506060612f8988828901612e23565b9250506080612f9a88828901612e23565b9150509295509295909350565b7f4e487b7100000000000000000000000000000000000000000000000000000000600052602160045260246000fd5b60088110612fe757612fe6612fa7565b5b50565b6000819050612ff882612fd6565b919050565b600061300882612fea565b9050919050565b61301881612ffd565b82525050565b6000602082019050613033600083018461300f565b92915050565b600080604083850312156130505761304f6127f6565b5b600061305e85828601612906565b925050602061306f85828601612afd565b9150509250929050565b600060608201905061308e60008301866128c5565b61309b60208301856128c5565b6130a860408301846128c5565b949350505050565b600080604083850312156130c7576130c66127f6565b5b60006130d585828601612906565b92505060206130e685828601612f17565b9150509250929050565b600080fd5b60008083601f84011261310b5761310a612a03565b5b8235905067ffffffffffffffff811115613128576131276130f0565b5b60208301915083600182028301111561314457613143612aaf565b5b9250929050565b60008060008060608587031215613165576131646127f6565b5b600061317387828801612906565b945050602061318487828801612f17565b935050604085013567ffffffffffffffff8111156131a5576131a46127fb565b5b6131b1878288016130f5565b925092505092959194509250565b600067ffffffffffffffff8211156131da576131d9612a08565b5b6131e382612997565b9050602081019050919050565b60006132036131fe846131bf565b612a68565b90508281526020810184848401111561321f5761321e612c98565b5b61322a848285612cce565b509392505050565b600082601f83011261324757613246612a03565b5b81356132578482602086016131f0565b91505092915050565b6000806000806080858703121561327a576132796127f6565b5b600085013567ffffffffffffffff811115613298576132976127fb565b5b6132a487828801612b7b565b945050602085013567ffffffffffffffff8111156132c5576132c46127fb565b5b6132d187828801612c3e565b935050604085013567ffffffffffffffff8111156132f2576132f16127fb565b5b6132fe87828801612dd4565b925050606085013567ffffffffffffffff81111561331f5761331e6127fb565b5b61332b87828801613232565b91505092959194509250565b600061334282612ab4565b9050919050565b600061335482613337565b9050919050565b61336481613349565b811461336f57600080fd5b50565b6000813590506133818161335b565b92915050565b60006020828403121561339d5761339c6127f6565b5b60006133ab84828501613372565b91505092915050565b6133bd81612ad4565b82525050565b60006020820190506133d860008301846133b4565b92915050565b6133e781612e02565b82525050565b600060208201905061340260008301846133de565b92915050565b6000806040838503121561341f5761341e6127f6565b5b600061342d85828601612afd565b925050602061343e85828601612906565b9150509250929050565b6000819050919050565b600061346d61346861346384612ab4565b613448565b612ab4565b9050919050565b600061347f82613452565b9050919050565b600061349182613474565b9050919050565b6134a181613486565b82525050565b60006020820190506134bc6000830184613498565b92915050565b7f476f7665726e6f723a206f6e6c79476f7665726e616e63650000000000000000600082015250565b60006134f8601883612953565b9150613503826134c2565b602082019050919050565b60006020820190508181036000830152613527816134eb565b9050919050565b7f4e487b7100000000000000000000000000000000000000000000000000000000600052602260045260246000fd5b6000600282049050600182168061357557607f821691505b602082108114156135895761358861352e565b5b50919050565b7f476f7665726e6f723a2070726f706f73616c206e6f742073756363657373667560008201527f6c00000000000000000000000000000000000000000000000000000000000000602082015250565b60006135eb602183612953565b91506135f68261358f565b604082019050919050565b6000602082019050818103600083015261361a816135de565b9050919050565b600081519050613630816128ef565b92915050565b60006020828403121561364c5761364b6127f6565b5b600061365a84828501613621565b91505092915050565b600081519050919050565b600082825260208201905092915050565b6000819050602082019050919050565b61369881612ad4565b82525050565b60006136aa838361368f565b60208301905092915050565b6000602082019050919050565b60006136ce82613663565b6136d8818561366e565b93506136e38361367f565b8060005b838110156137145781516136fb888261369e565b9750613706836136b6565b9250506001810190506136e7565b5085935050505092915050565b600081519050919050565b600082825260208201905092915050565b6000819050602082019050919050565b613756816128bb565b82525050565b6000613768838361374d565b60208301905092915050565b6000602082019050919050565b600061378c82613721565b613796818561372c565b93506137a18361373d565b8060005b838110156137d25781516137b9888261375c565b97506137c483613774565b9250506001810190506137a5565b5085935050505092915050565b600081519050919050565b600082825260208201905092915050565b6000819050602082019050919050565b600081519050919050565b600082825260208201905092915050565b60006138328261380b565b61383c8185613816565b935061384c818560208601612964565b61385581612997565b840191505092915050565b600061386c8383613827565b905092915050565b6000602082019050919050565b600061388c826137df565b61389681856137ea565b9350836020820285016138a8856137fb565b8060005b858110156138e457848403895281516138c58582613860565b94506138d083613874565b925060208a019950506001810190506138ac565b50829750879550505050505092915050565b6000819050919050565b60008160001b9050919050565b600061392861392361391e846138f6565b613900565b612e02565b9050919050565b6139388161390d565b82525050565b600060a082019050818103600083015261395881886136c3565b9050818103602083015261396c8187613781565b905081810360408301526139808186613881565b905061398f606083018561392f565b61399c60808301846133de565b9695505050505050565b6000815190506139b581612e0c565b92915050565b6000602082840312156139d1576139d06127f6565b5b60006139df848285016139a6565b91505092915050565b600060c0820190508181036000830152613a0281896136c3565b90508181036020830152613a168188613781565b90508181036040830152613a2a8187613881565b9050613a39606083018661392f565b613a4660808301856133de565b613a5360a08301846128c5565b979650505050505050565b7f4e487b7100000000000000000000000000000000000000000000000000000000600052601160045260246000fd5b6000613a98826128bb565b9150613aa3836128bb565b9250827fffffffffffffffffffffffffffffffffffffffffffffffffffffffffffffffff03821115613ad857613ad7613a5e565b5b828201905092915050565b6000604082019050613af860008301856128c5565b613b0560208301846128c5565b9392505050565b613b1581612ef3565b82525050565b6000606082019050613b3060008301866133de565b613b3d60208301856128c5565b613b4a6040830184613b0c565b949350505050565b60006080820190508181036000830152613b6c81876136c3565b90508181036020830152613b808186613781565b90508181036040830152613b948185613881565b9050613ba360608301846133de565b95945050505050565b7f476f7665726e6f72566f74657351756f72756d4672616374696f6e3a2071756f60008201527f72756d4e756d657261746f72206f7665722071756f72756d44656e6f6d696e6160208201527f746f720000000000000000000000000000000000000000000000000000000000604082015250565b6000613c2e604383612953565b9150613c3982613bac565b606082019050919050565b60006020820190508181036000830152613c5d81613c21565b9050919050565b7f476f7665726e6f723a20766f7465206e6f742063757272656e746c792061637460008201527f6976650000000000000000000000000000000000000000000000000000000000602082015250565b6000613cc0602383612953565b9150613ccb82613c64565b604082019050919050565b60006020820190508181036000830152613cef81613cb3565b9050919050565b6000608082019050613d0b60008301876128c5565b613d186020830186613b0c565b613d2560408301856128c5565b8181036060830152613d3781846129a8565b905095945050505050565b613d4b81612885565b8114613d5657600080fd5b50565b600081519050613d6881613d42565b92915050565b600060208284031215613d8457613d836127f6565b5b6000613d9284828501613d59565b91505092915050565b6000613da6826128bb565b9150613db1836128bb565b925082821015613dc457613dc3613a5e565b5b828203905092915050565b7f476f7665726e6f72436f6d7061746962696c697479427261766f3a2070726f7060008201527f6f73657220766f7465732062656c6f772070726f706f73616c2074687265736860208201527f6f6c640000000000000000000000000000000000000000000000000000000000604082015250565b6000613e51604383612953565b9150613e5c82613dcf565b606082019050919050565b60006020820190508181036000830152613e8081613e44565b9050919050565b7f476f7665726e6f723a20696e76616c69642070726f706f73616c206c656e677460008201527f6800000000000000000000000000000000000000000000000000000000000000602082015250565b6000613ee3602183612953565b9150613eee82613e87565b604082019050919050565b60006020820190508181036000830152613f1281613ed6565b9050919050565b7f476f7665726e6f723a20656d7074792070726f706f73616c0000000000000000600082015250565b6000613f4f601883612953565b9150613f5a82613f19565b602082019050919050565b60006020820190508181036000830152613f7e81613f42565b9050919050565b7f476f7665726e6f723a2070726f706f73616c20616c726561647920657869737460008201527f7300000000000000000000000000000000000000000000000000000000000000602082015250565b6000613fe1602183612953565b9150613fec82613f85565b604082019050919050565b6000602082019050818103600083015261401081613fd4565b9050919050565b600067ffffffffffffffff82169050919050565b600061403682614017565b915061404183614017565b92508267ffffffffffffffff0382111561405e5761405d613a5e565b5b828201905092915050565b600081519050919050565b600082825260208201905092915050565b6000819050602082019050919050565b600082825260208201905092915050565b60006140b182612948565b6140bb8185614095565b93506140cb818560208601612964565b6140d481612997565b840191505092915050565b60006140eb83836140a6565b905092915050565b6000602082019050919050565b600061410b82614069565b6141158185614074565b93508360208202850161412785614085565b8060005b85811015614163578484038952815161414485826140df565b945061414f836140f3565b925060208a0199505060018101905061412b565b50829750879550505050505092915050565b600061419061418b61418684614017565b613448565b6128bb565b9050919050565b6141a081614175565b82525050565b6000610120820190506141bc600083018c6128c5565b6141c9602083018b6133b4565b81810360408301526141db818a6136c3565b905081810360608301526141ef8189613781565b905081810360808301526142038188614100565b905081810360a08301526142178187613881565b905061422660c0830186614197565b61423360e0830185614197565b81810361010083015261424681846129a8565b90509a9950505050505050505050565b600060408201905061426b60008301856133b4565b61427860208301846133b4565b9392505050565b600060408201905061429460008301856133b4565b6142a160208301846128c5565b9392505050565b60006142b3826128bb565b91506142be836128bb565b9250817fffffffffffffffffffffffffffffffffffffffffffffffffffffffffffffffff04831182151516156142f7576142f6613a5e565b5b828202905092915050565b7f4e487b7100000000000000000000000000000000000000000000000000000000600052601260045260246000fd5b600061433c826128bb565b9150614347836128bb565b92508261435757614356614302565b5b828204905092915050565b600081905092915050565b7f1901000000000000000000000000000000000000000000000000000000000000600082015250565b60006143a3600283614362565b91506143ae8261436d565b600282019050919050565b6000819050919050565b6143d46143cf82612e02565b6143b9565b82525050565b60006143e582614396565b91506143f182856143c3565b60208201915061440182846143c3565b6020820191508190509392505050565b600060808201905061442660008301876133de565b6144336020830186613b0c565b61444060408301856133de565b61444d60608301846133de565b95945050505050565b7f45434453413a20696e76616c6964207369676e61747572650000000000000000600082015250565b600061448c601883612953565b915061449782614456565b602082019050919050565b600060208201905081810360008301526144bb8161447f565b9050919050565b7f45434453413a20696e76616c6964207369676e6174757265206c656e67746800600082015250565b60006144f8601f83612953565b9150614503826144c2565b602082019050919050565b60006020820190508181036000830152614527816144eb565b9050919050565b7f45434453413a20696e76616c6964207369676e6174757265202773272076616c60008201527f7565000000000000000000000000000000000000000000000000000000000000602082015250565b600061458a602283612953565b91506145958261452e565b604082019050919050565b600060208201905081810360008301526145b98161457d565b9050919050565b7f45434453413a20696e76616c6964207369676e6174757265202776272076616c60008201527f7565000000000000000000000000000000000000000000000000000000000000602082015250565b600061461c602283612953565b9150614627826145c0565b604082019050919050565b6000602082019050818103600083015261464b8161460f565b9050919050565b7f476f7665726e6f72566f74696e6753696d706c653a20766f746520616c72656160008201527f6479206361737400000000000000000000000000000000000000000000000000602082015250565b60006146ae602783612953565b91506146b982614652565b604082019050919050565b600060208201905081810360008301526146dd816146a1565b9050919050565b7f476f7665726e6f72566f74696e6753696d706c653a20696e76616c696420766160008201527f6c756520666f7220656e756d20566f7465547970650000000000000000000000602082015250565b6000614740603583612953565b915061474b826146e4565b604082019050919050565b6000602082019050818103600083015261476f81614733565b9050919050565b7f476f7665726e6f723a20756e6b6e6f776e2070726f706f73616c206964000000600082015250565b60006147ac601d83612953565b91506147b782614776565b602082019050919050565b600060208201905081810360008301526147db8161479f565b9050919050565b7f53616665436173743a2076616c756520646f65736e27742066697420696e203660008201527f3420626974730000000000000000000000000000000000000000000000000000602082015250565b600061483e602683612953565b9150614849826147e2565b604082019050919050565b6000602082019050818103600083015261486d81614831565b9050919050565b600060a08201905061488960008301886133de565b61489660208301876133de565b6148a360408301866133de565b6148b060608301856128c5565b6148bd60808301846133b4565b969550505050505056fea2646970667358221220975205bb34a180864efdd862013dfee9f6c778b643b99f1d4d50ee041f0fb32764736f6c63430008090033",
  "immutableReferences": {
    "2931": [
      {
        "length": 32,
        "start": 4935
      },
      {
        "length": 32,
        "start": 6975
      },
      {
        "length": 32,
        "start": 7172
      }
    ],
    "5809": [
      {
        "length": 32,
        "start": 7777
      }
    ],
    "5811": [
      {
        "length": 32,
        "start": 7736
      }
    ],
    "5813": [
      {
        "length": 32,
        "start": 7650
      }
    ],
    "5815": [
      {
        "length": 32,
        "start": 7853
      }
    ],
    "5817": [
      {
        "length": 32,
        "start": 7886
      }
    ],
    "5819": [
      {
        "length": 32,
        "start": 7820
      }
    ]
  },
  "source": "// SPDX-License-Identifier: MIT\npragma solidity ^0.8.0;\n\nimport \"@openzeppelin/contracts/governance/Governor.sol\";\nimport \"@openzeppelin/contracts/governance/extensions/GovernorCountingSimple.sol\";\nimport \"@openzeppelin/contracts/governance/extensions/GovernorVotes.sol\";\nimport \"@openzeppelin/contracts/governance/extensions/GovernorVotesQuorumFraction.sol\";\nimport \"@openzeppelin/contracts/governance/extensions/GovernorTimelockControl.sol\";\n\n// NOTE: Contract created with the help of --> https://wizard.openzeppelin.com/#governor\n\ncontract Governance is\n    Governor,\n    GovernorCountingSimple,\n    GovernorVotes,\n    GovernorVotesQuorumFraction,\n    GovernorTimelockControl\n{\n    uint256 public votingDelay_;\n    uint256 public votingPeriod_;\n\n    constructor(\n        ERC20Votes _token,\n        TimelockController _timelock,\n        uint256 _quorum,\n        uint256 _votingDelay,\n        uint256 _votingPeriod\n    )\n        Governor(\"DApp University DAO\")\n        GovernorVotes(_token)\n        GovernorVotesQuorumFraction(_quorum)\n        GovernorTimelockControl(_timelock)\n    {\n        votingDelay_ = _votingDelay;\n        votingPeriod_ = _votingPeriod;\n    }\n\n    function votingDelay() public view override returns (uint256) {\n        return votingDelay_;\n    }\n\n    function votingPeriod() public view override returns (uint256) {\n        return votingPeriod_;\n    }\n\n    // The following functions are overrides required by Solidity.\n\n    function quorum(uint256 blockNumber)\n        public\n        view\n        override(IGovernor, GovernorVotesQuorumFraction)\n        returns (uint256)\n    {\n        return super.quorum(blockNumber);\n    }\n\n    function getVotes(address account, uint256 blockNumber)\n        public\n        view\n        override(IGovernor, GovernorVotes)\n        returns (uint256)\n    {\n        return super.getVotes(account, blockNumber);\n    }\n\n    function state(uint256 proposalId)\n        public\n        view\n        override(Governor, GovernorTimelockControl)\n        returns (ProposalState)\n    {\n        return super.state(proposalId);\n    }\n\n    function propose(\n        address[] memory targets,\n        uint256[] memory values,\n        bytes[] memory calldatas,\n        string memory description\n    ) public override(Governor, IGovernor) returns (uint256) {\n        return super.propose(targets, values, calldatas, description);\n    }\n\n    function _execute(\n        uint256 proposalId,\n        address[] memory targets,\n        uint256[] memory values,\n        bytes[] memory calldatas,\n        bytes32 descriptionHash\n    ) internal override(Governor, GovernorTimelockControl) {\n        super._execute(proposalId, targets, values, calldatas, descriptionHash);\n    }\n\n    function _cancel(\n        address[] memory targets,\n        uint256[] memory values,\n        bytes[] memory calldatas,\n        bytes32 descriptionHash\n    ) internal override(Governor, GovernorTimelockControl) returns (uint256) {\n        return super._cancel(targets, values, calldatas, descriptionHash);\n    }\n\n    function _executor()\n        internal\n        view\n        override(Governor, GovernorTimelockControl)\n        returns (address)\n    {\n        return super._executor();\n    }\n\n    function supportsInterface(bytes4 interfaceId)\n        public\n        view\n        override(Governor, GovernorTimelockControl)\n        returns (bool)\n    {\n        return super.supportsInterface(interfaceId);\n    }\n}\n",
  "sourcePath": "/mnt/c/Users/tommy/OneDrive/Desktop/governance-master/contracts/Governance.sol",
  "compiler": {
    "name": "solc",
    "version": "0.8.9+commit.e5eed63a.Emscripten.clang"
  },
  "schemaVersion": "3.4.4",
  "updatedAt": "2022-04-24T22:20:10.360Z",
  "networkType": "ethereum",
  "devdoc": {
    "kind": "dev",
    "methods": {
      "COUNTING_MODE()": {
        "details": "See {IGovernor-COUNTING_MODE}."
      },
      "castVote(uint256,uint8)": {
        "details": "See {IGovernor-castVote}."
      },
      "castVoteBySig(uint256,uint8,uint8,bytes32,bytes32)": {
        "details": "See {IGovernor-castVoteBySig}."
      },
      "castVoteWithReason(uint256,uint8,string)": {
        "details": "See {IGovernor-castVoteWithReason}."
      },
      "execute(address[],uint256[],bytes[],bytes32)": {
        "details": "See {IGovernor-execute}."
      },
      "hasVoted(uint256,address)": {
        "details": "See {IGovernor-hasVoted}."
      },
      "hashProposal(address[],uint256[],bytes[],bytes32)": {
        "details": "See {IGovernor-hashProposal}. The proposal id is produced by hashing the RLC encoded `targets` array, the `values` array, the `calldatas` array and the descriptionHash (bytes32 which itself is the keccak256 hash of the description string). This proposal id can be produced from the proposal data which is part of the {ProposalCreated} event. It can even be computed in advance, before the proposal is submitted. Note that the chainId and the governor address are not part of the proposal id computation. Consequently, the same proposal (with same operation and same description) will have the same id if submitted on multiple governors accross multiple networks. This also means that in order to execute the same operation twice (on the same governor) the proposer will have to change the description in order to avoid proposal id conflicts."
      },
      "name()": {
        "details": "See {IGovernor-name}."
      },
      "proposalDeadline(uint256)": {
        "details": "See {IGovernor-proposalDeadline}."
      },
      "proposalEta(uint256)": {
        "details": "Public accessor to check the eta of a queued proposal"
      },
      "proposalSnapshot(uint256)": {
        "details": "See {IGovernor-proposalSnapshot}."
      },
      "proposalThreshold()": {
        "details": "Part of the Governor Bravo's interface: _\"The number of votes required in order for a voter to become a proposer\"_."
      },
      "proposalVotes(uint256)": {
        "details": "Accessor to the internal vote counts."
      },
      "queue(address[],uint256[],bytes[],bytes32)": {
        "details": "Function to queue a proposal to the timelock."
      },
      "timelock()": {
        "details": "Public accessor to check the address of the timelock"
      },
      "updateTimelock(address)": {
        "details": "Public endpoint to update the underlying timelock instance. Restricted to the timelock itself, so updates must be proposed, scheduled and executed using the {Governor} workflow."
      },
      "version()": {
        "details": "See {IGovernor-version}."
      },
      "votingDelay()": {
        "details": "Delay, in number of block, between the proposal is created and the vote starts. This can be increassed to leave time for users to buy voting power, of delegate it, before the voting of a proposal starts."
      },
      "votingPeriod()": {
        "details": "Delay, in number of blocks, between the vote start and vote ends. NOTE: The {votingDelay} can delay the start of the vote. This must be considered when setting the voting duration compared to the voting delay."
      }
    },
    "version": 1
  },
  "userdoc": {
    "kind": "user",
    "methods": {
      "votingDelay()": {
        "notice": "module:user-config"
      },
      "votingPeriod()": {
        "notice": "module:user-config"
      }
    },
    "version": 1
  }
}